:020000040800F2
:100000006805002001010008FB240008D31800083F
:10001000F92400080F020008F52A0008000000007B
:100020000000000000000000000000001F25000884
:1000300011020008000000001D250008212500080D
:100040001B0100081B0100081B0100081B01000820
:100050001B0100081B0100081B0100081B01000810
:100060001B0100081B0100081B0100081B01000800
:100070001B0100081B0100081B0100081B010008F0
:100080001B0100081B0100081B0100081B010008E0
:100090001B0100081B0100081B0100081B010008D0
:1000A0001B010008C92500081B0100081B010008EE
:1000B0001B0100081B0100081B010008D5180008DF
:1000C0001B0100081B0100081B0100081B010008A0
:1000D0001B010008E92A00081B0100081B01000899
:1000E0001B0100081B0100081B010008DFF80CD0F1
:1000F00000F06CF800480047112E00086805002049
:100100000648804706480047FEE7FEE7FEE7FEE7B1
:10011000FEE7FEE7FEE7FEE7FEE7FEE781250008D3
:10012000ED000008202A04DB203A21FA02F0002129
:10013000704721FA02F3D040C2F1200291400843F7
:1001400019467047D2B201E000F8012B491EFBD2DC
:1001500070470022F6E710B513460A4604461946D2
:10016000FFF7F0FF204610BD2DE9F05F05460020A7
:1001700092469B4688460646814640241BE0284618
:10018000414647462246FFF7CDFF53465A46C01A1E
:10019000914110D311461846224600F029F82D1A35
:1001A00067EB01084F4622460120002100F020F8AD
:1001B00017EB00094E41201EA4F10104DFDC484684
:1001C00031462A464346BDE8F09F0000064C074DE5
:1001D00006E0E06840F0010394E807009847103417
:1001E000AC42F6D3FFF786FFA02E0008C02E000811
:1001F000202A04DB203A00FA02F1002070479140E7
:10020000C2F1200320FA03F3194390407047FEE740
:100210007047000001A002F06FBC00004572726FD1
:100220007220466F756E640A0000000010B590F8E9
:1002300021100024022903D00421816301243DE020
:1002400001680A6822F00E020A6001680A6822F05A
:1002500001020A601A4A0168914201D1012121E09C
:10026000174A1432914201D110211BE0144A28325E
:10027000914201D1891515E0114A3C32914201D1D8
:1002800089140FE00E4A5032914202D14FF480316E
:1002900008E00B4A6432914202D14FF4801101E030
:1002A0004FF08071064A083A5160012180F8211010
:1002B000002180F82010416B01B18847204610BD15
:1002C0000800024070B5044600F0F6F80546601CD0
:1002D00002D004480078044400F0EEF8401BA0422D
:1002E000FAD370BD000000202DE9F84FDFF890A18F
:1002F00000220AF1040B144601274FF00F090BF1FD
:10030000040E00BF0B6807FA04F52B40AB4274D112
:10031000DFF870C14E68A6EB0C0866452BD00DDCEB
:10032000032E34D005DC36B3012E19D0022E2FD186
:100330001BE0112E16D0122E2AD119E0B8F5881F15
:1003400019D006DCB8F5803F15D0B8F5801F1FD155
:1003500011E0B8F5001F0ED0B8F5041F18D10AE05F
:10036000CA6815E0CA68121D12E0CA6808320FE0B8
:10037000CA680C320CE08A682AB1012A4FF00802E0
:1003800003D0456104E0042202E0056100E00022A0
:10039000FF2B01D8064601E000F104064FEA840570
:1003A00001D9A5F12005D6F800C009FA05F82CEA14
:1003B000080C02FA05F54CEA050CC6F800C04D68B9
:1003C000ED0057D5304DAE6946F00106AE61AD691E
:1003D00024F0030605F0010500952C4D06EB050CF5
:1003E000DCF80850A6074FEA167809FA08F6B54374
:1003F000274EB04202D1002610E03BE0254EB0422D
:1004000001D101260AE0244EB04201D1022605E0C6
:10041000224EB04201D1032600E0042606FA08F677
:100420002E43CCF808604D68DAF80060ED035546BD
:1004300001D51E4300E09E432E604D68DBF800604E
:10044000AD035D4601D51E4300E09E432E604D681E
:10045000DEF80060ED02754601D51E4300E09E43C4
:100460002E604D68AD020E4D2E6801D51E4300E092
:100470009E432E60641C102CFFF444AFBDE8F88F3F
:100480000004014000001110001002400000014073
:1004900000080140000C0140001001400014014020
:1004A0000C040140C2684A40C26070470AB1016151
:1004B00070470904FBE700000148806870470000AE
:1004C00000000020704770472DE9F05F0268044685
:1004D000D2F818805569566890F83E007449DFF8E4
:1004E000D0A1DFF8CCB1DFF8CC918F1C0AF17E0AE5
:1004F0000BF13E0B102812D0402810D00D425BD0DB
:10050000B00559D5936920460021DB435B0700D530
:1005100001219269D243120648D5828947E015F03D
:10052000011F05D0B00503D5204601F0B4FC10E052
:100530005F48801D054205D0B00503D5606CC0B290
:10054000106106E00D4204D0B00502D5204601F04E
:1005500015FC18EA090F14D015EA0A0F08D0700527
:1005600006D53D4206D12046BDE8F05F01F082BBD2
:100570003D421FD0B0051DD52046BDE8F05F01F01B
:1005800038BB15EA0B0F08D0700506D53D4206D1E1
:100590002046BDE8F05F01F0D5BA3D420AD0B00573
:1005A00008D52046BDE8F05F01F068BA028B92B230
:1005B000FFF789FFBDE8F09F3D480E30054206D0A9
:1005C000B00504D52046BDE8F05F01F009BD18EA8A
:1005D000090F4FF0280134D015EA0A0F23D0700517
:1005E00021D53D4221D194F83D302046628D002A2C
:1005F000E0D0426A541C4462046812782261428D41
:10060000521E4285428D002AD4D1292BD2D10268B4
:10061000536823F4806353602122026380F83D1005
:1006200000F031FAC6E73D42C4D0B005C2D5608DB6
:100630000028BFD0606A411C6162216800780861AF
:1006400031E015EA0B0F22D0700520D53D4220D1B4
:1006500094F83D302046648D002CABD01469426A7A
:10066000551C45621470428D521E4285428D002AEF
:10067000A0D12A2B9ED10268536823F48063536073
:100680002222026380F83D1000F0FCF992E73D421F
:1006900090D0B0058ED5608D00288BD01169606A2E
:1006A000421C62620170608D401E608582E700001E
:1006B00002000100040010007047000070B5040043
:1006C0001BD094F83D00002520B984F83C5020460A
:1006D00000F0AAF9242084F83D002068016821F088
:1006E0000101016000F01CFB404A6168914201D8A1
:1006F0003F4900E03F49884201D2012070BD3E4998
:100700002368B0FBF1F159606368934206D94FF456
:10071000967359434FF47A73B1FBF3F12368491C84
:1007200019626168914210D84900401EB0FBF1F295
:10073000521CC2F30B02042A01D2042022E0B0FBB7
:10074000F1F0401CC0F30B001CE0A368CBB301EB3D
:10075000C10202EB0116421EB2FBF6F2521C42F439
:100760008042120536D06BB301EBC10202EB0111DE
:10077000401EB0FBF1F0401CC0F30B0040F4804081
:1007800040F400402168C861D4E9070108432168AA
:100790000860D4E90310084321688860D4E90501A2
:1007A00008432168C8602068016841F001010160C8
:1007B0002564202084F83D00256384F83E50002005
:1007C00070BD00E008E001EB4106421EB2FBF6F20C
:1007D000521CC6E70120D5E701EB4101401EB0FBEA
:1007E000F1F0401CC0F30B00CAE70000A086010036
:1007F00080841E0000093D0040420F007047704792
:1008000070477047704700002DE9FF4F83B09A464C
:10081000DDE9118793460446DDF84090FFF74CFE72
:10082000054694F83D00202872D1192301227B4906
:100830002046009501F042FC0028F5D194F83C00D8
:10084000012865D0012084F83C0020680168C907B0
:1008500003D1016841F0010101602068016821F4C1
:1008600000610160222084F83D00402084F83E00B1
:1008700000262664C4F82490A4F82A806848E06220
:10088000608D2085CDE9007553465A46204604996F
:1008900001F02EFB28B1206C84F83C60042851D074
:1008A00075E0208DDFF87C8168B1012814D0022822
:1008B000206801681ED041F48061016020684169B0
:1008C000806900909BE0206841698169009101681E
:1008D00041F40071016092E02068016821F48061B8
:1008E000016072B62068416981690091016841F434
:1008F00000710AE041F40061016072B6206841694C
:1009000081690091016821F48061016062B676E03E
:1009100081E0032850D801280BD002283B464FF035
:10092000000241462046009512D001F0C7FB70BB83
:1009300013E02A463946204601F034FC30B1206CE1
:10094000202824D0012007B0BDE8F08F20684BE0BC
:1009500001F0B4FBD8B972B61BE02068016821F43D
:100960008061016072B620680169606A421C62623F
:100970000170208D401E2085608D401E60853B46A5
:10098000002241462046009501F098FB08B1032063
:10099000D9E72068016841F40071016020680169AD
:1009A000606A421C62620170208D401E2085608D4D
:1009B000401E608562B6C9E72A463946204601F0E6
:1009C000F1FB0028BBD120680169606A421C6262A9
:1009D0000170208D401E2085608D401E608520683E
:1009E0004169C94349070AD40169606A421C6262CD
:1009F0000170208D401E2085608D401E6085208DF9
:100A0000002886D1202084F83D0084F83E6084F8D8
:100A10003C60002097E7022095E7000002001000EC
:100A20000000FFFF0400010010B586B00021009116
:100A300001910291039100680F4988421AD10F4C2D
:100A4000A06940F00800A061A069694600F00800B4
:100A50000490C020009012200190032003900848C9
:100A6000FFF742FCE06940F40010E061E06900F447
:100A70000010049006B010BD005400400010024069
:100A8000000C0140704770470248816802781144A9
:100A90008160704700000020074810B5016841F0F0
:100AA00010010160032000F073F8002000F006F848
:100AB00000F024F8002010BD0020024070B50D4D5C
:100AC00004464FF47A712878B1FBF0F00A490968BE
:100AD000B1FBF0F000F0FCFA48B9102C07D200226C
:100AE0002146501E00F034F800206C6070BD0120DB
:100AF00070BD0000000000200C0000200C4808B56C
:100B0000816941F001018161816901F00101009178
:100B1000C16941F08051C161C06900F0805000900E
:100B20000448416821F0E06141F00071416008BD76
:100B3000001002400000014000F01F02012191401E
:100B40004009800000F1E020C0F80011704700006B
:100B5000F0B40E4B1B680C46C3F30223C3F1070528
:100B6000042D00D90425191D072901D2002300E016
:100B7000DB1E012606FA05F1491E214099409E40E0
:100B8000761E16403143F0BC01F0B8BC0CED00E01D
:100B9000064900F0070208684FF6FF03184040EAD4
:100BA0000220034A10430860704700000CED00E08B
:100BB0000000FA052DE9F047DFF8548105460E469E
:100BC000D8F8000000F00700B0420CD2D8F80010AE
:100BD00021F007013143C8F80010D8F8000000F0F8
:100BE0000700B0426FD128684A4C810712D54007F0
:100BF00003D5606840F4E06060602878000703D5A2
:100C0000606840F4605060606068A96820F0F0009F
:100C1000084360602878C00744D06868012816D06F
:100C20002168022816D0890700294CDA616821F072
:100C3000030101436160FFF73FFC6968074641F229
:100C4000883001290ED00229814618D026E021687B
:100C50008903E9E78901E7E7FFF72EFCC11B494556
:100C600001D918E081466068C0F381000128F3D102
:100C700018E000BFFFF720FCC11B49450BD8606896
:100C8000C0F381000228F5D10CE000BFFFF714FC8F
:100C9000C11B494502D90320BDE8F087606810F008
:100CA0000C0FF3D1D8F80010404601F00701B14213
:100CB0000BD9016821F0070131430160006800F0A1
:100CC0000700B04201D00120E6E72878400705D5AB
:100CD0006068E96820F4E0600843606028780007F5
:100CE00006D56068296920F4605040EAC100606060
:100CF00000F036F86168084AC1F30311515CC8403E
:100D0000064908600020FFF7D9FE0020C4E7000074
:100D10000020024000100240882E00080C00002035
:100D20000448054900684968044AC1F30221515C3E
:100D3000C84070470C00002000100240982E0008A8
:100D40000448054900684968044AC1F3C221515C5E
:100D5000C84070470C00002000100240982E000888
:100D600012A185B00FC98DE80F0014A0144A0068C5
:100D700004905168134801F00C03042B10D0082B89
:100D80000ED1C1F38343C9031DF803000AD551688E
:100D900004AAC1F34041515C0A4A5043B0FBF1F050
:100DA00005B0704708494843FAE70000020304050C
:100DB000060708090A0B0C0D0E0F101001020000A7
:100DC0000010024000127A0000093D002DE9F84FA2
:100DD00004460078B94DC00748D06868C0F3810068
:100DE000012807D06868C0F38100022809D168682B
:100DF000C00306D52868800338D5606800286FD006
:100E000034E06068B0F5803F0BD010B1B0F5A02F92
:100E100011D0286820F480302860286820F48020D1
:100E200002E0286840F480302860606888B1FFF7ED
:100E300043FB064609E0286840F480202860F0E77C
:100E4000FFF73AFB801B642875D828688003F7D524
:100E50000CE0FFF731FB064605E000BFFFF72CFB77
:100E6000801B6428F0D828688003F7D42078944E3B
:100E700080074FF001094FF000083BD5686810F07B
:100E80000C0F07D06868C0F38100022809D1686898
:100E9000C00306D42868800714D5206901281FD113
:100EA00010E02069B0B1C6F80090FFF705FB0746D7
:100EB00005E000BFFFF700FBC01B0228C4D828686C
:100EC0008007F7D52868616920F0F80040EAC10082
:100ED00028600FE0C6F80080FFF7EEFA074606E04C
:100EE000E9E000BFFFF7E8FAC01B022823D8286812
:100EF0008007F7D4207800072CD57248A169D9B1B2
:100F0000C0F80090FFF7D8FA074604E0FFF7D4FADC
:100F1000C01B02280FD8686A8007F7D56A484FF4CB
:100F2000FA510068B0FBF1F0009000BF0098411E3C
:100F30000091FAD20EE080E0C0F80080FFF7BCFA22
:100F4000074604E0FFF7B8FAC01B022875D8686AA4
:100F50008007F7D42078400760D5E8690027C000F3
:100F600008D4E86940F08050E861E869012700F0A2
:100F70008050009055480168C90513D40168834624
:100F800041F480710160FFF797FA824606E000BFE6
:100F9000FFF792FAA0EB0A0064284ED8DBF80000B5
:100FA000C005F5D5E06801280AD008B1052813D09E
:100FB000286A20F001002862286A20F0040002E07C
:100FC000286A40F001002862E06841F2883B98B14D
:100FD000FFF772FA82460BE0286A40F004002862AC
:100FE000EEE700BFFFF768FAA0EB0A0159455AD8AF
:100FF000286A8007F6D50CE0FFF75EFA824605E026
:10100000FFF75AFAA0EB0A0159454CD8286A800725
:10101000F6D41FB1E86920F08050E861E06988B338
:101020006968C1F38101022945D00228C6F86080B1
:1010300004D0FFF741FA044638E034E0FFF73CFA09
:10104000074604E0FFF738FAC01B02282BD82868AF
:101050008001F7D4206AB0F5803F05D16868A168A7
:1010600020F4003008436860D4E908010843696847
:1010700021F4741108436860C6F86090FFF71CFA09
:10108000044606E015E000BFFFF716FA001B022831
:1010900009D828688001F7D50BE000BFFFF70CFAEC
:1010A000001B022802D90320BDE8F88F28688001C0
:1010B000F4D40020F8E70120F6E700000010024019
:1010C00000004242800442420C00002000700040B8
:1010D00010B5401EB0F1807F01D3012010BD4FF04C
:1010E000E02460610F21601701F008FA0020A06180
:1010F00007202061002010BD7047704730B590F880
:101100003C20012A20D0012280F83C20022380F8D4
:101110003D3003685C6824F070045C6003685C68C0
:101120000D682C435C6003689C6824F080049C601C
:1011300003689C6849680C439C6080F83D2000214E
:1011400080F83C10084630BD022030BD10B50400C8
:1011500003D094F83D0010B107E0012010BD00203D
:1011600084F83C00204600F00DF8022084F83D0091
:10117000211D206801F02EFA012084F83D00002096
:1011800010BD000008B500680B49884212D10B4819
:10119000816941F4006181618069002200F400608E
:1011A000009011461920FFF7D3FCBDE80840192034
:1011B000FFF7C2BC08BD0000002C01400010024037
:1011C00070B5044690F83C00012817D0012584F83A
:1011D0003C50022084F83D002068826822F07702AB
:1011E00022F47F4282600868502837D00DDC202826
:1011F00059D005DC88B3102841D151E0022070BDE0
:10120000302853D040283AD13FE060282ED07028B3
:101210000BD0B0F5805F03D0B0F5005F2FD110E0A8
:101220002068816821F0070115E0CB68D1E9012130
:10123000206801F005FA2168886840F0770088602E
:101240001DE0CB68D1E90121206801F0F9F920689F
:10125000816841F48041816011E01EE0CA684968FC
:10126000206801F0A1FA5021206806E0CA684968A8
:10127000206801F0AAFA6021206801F0EBF984F8F7
:101280003D50002084F83C0070BDCA684968206861
:1012900001F08AFA40212068EFE700212068ECE79E
:1012A00010212068E9E720212068E6E73021206846
:1012B000E3E7704770B50446006801694FF0000528
:1012C000C943890715D4C168C943890711D4E91EE8
:1012D000016101202077206880698007204602D0C4
:1012E000FFF7E7FF04E000F0DBF8204600F06EF9BE
:1012F000257720680169C943490717D4C168C943E4
:10130000490713D46FF0040101610220207720689F
:10131000806910F4407F204602D0FFF7CAFF04E046
:1013200000F0BEF8204600F051F9257720680169E9
:10133000C943090716D4C168C943090712D46FF01D
:1013400008010161042020772068C06980072046D9
:1013500002D0FFF7AEFF04E000F0A2F8204600F054
:1013600035F9257720680169C943C90617D4C168D2
:10137000C943C90613D46FF010010161082020771A
:101380002068C06910F4407F204602D0FFF791FF2B
:1013900004E000F085F8204600F018F92577206871
:1013A0000169C943C90708D1C168C943C90704D144
:1013B000891E0161204600F00AF920680169C943CD
:1013C000090609D4C168C943090605D46FF0800134
:1013D00001612046FFF790FE20680169C943490674
:1013E00009D4C168C943490605D46FF040010161C1
:1013F000204600F0EDF820680169C94389060BD446
:10140000C168C943890607D46FF0200101612046F5
:10141000BDE87040FFF771BE70BD000010B586B02A
:10142000002100910191029103910068B0F1804F79
:101430002BD11748816941F008018161816901F070
:1014400008010491816941F00401816180690224ED
:1014500000F00400049040F60840CDE9000469461D
:101460000C480394FEF740FFA003CDE90004694651
:1014700009480394FEF738FF0848416821F4407199
:1014800041F0E06141F44071416006B010BD0000E0
:1014900000100240000C0140000801400000014023
:1014A000704770B5044690F83C000D4601280DD0F9
:1014B000012684F83C60022084F83D0042B1042AF1
:1014C00018D0082A2AD00C2A4DD139E0022070BD4C
:1014D000206801F0C7F82068816941F00801816146
:1014E0002068816921F004018161206881692A698D
:1014F000114311E0206801F0DDF82068816941F4B2
:10150000006181612068816921F4806181612068C6
:1015100081692A6941EA0221816124E0206801F0A1
:10152000F5F82068C16941F00801C1612068C1690E
:1015300021F00401C1612068C1692A69114311E0E9
:10154000206801F00FF92068C16941F40061C161B0
:101550002068C16921F48061C1612068C1692A697C
:1015600041EA0221C16184F83D60002084F83C001A
:1015700070BD10B5040003D094F83D0010B107E031
:10158000012010BD002084F83C00204600F00CF83B
:10159000022084F83D00211D206801F01BF8012085
:1015A00084F83D00002010BD08B50068B0F1804F00
:1015B00008D10548C16941F00101C161C06900F06D
:1015C0000100009008BD0000001002407047704705
:1015D0007047704770B5026804461068D168536957
:1015E00010F00F0F50D003F0010501F49076354351
:1015F0005DD0C20705D0CA0503D5E26B42F00102F7
:10160000E263420705D5DA0703D0E26B42F002023B
:10161000E263820705D5DA0703D0E26B42F00402E9
:10162000E263020705D5DA0703D0E26B42F0080255
:10163000E263E26B002A33D0800604D5880602D527
:10164000204601F0EAF820684069E16BC0F38010A1
:10165000090700D428B3204601F0D1F82068416979
:1016600049061AD5416921F040014161606BA0B182
:101670001B494163606BFEF7D9FD002810D0606BF9
:10168000416BBDE870400847830610D58B060ED528
:101690002046BDE8704001F0C0B82046FFF799FF32
:1016A00070BD2046FFF795FF0020E06370BD030684
:1016B00006D50B0604D52046BDE8704001F0B0B950
:1016C0004006F3D54806F1D5D168204621F0400107
:1016D000D160202184F8391000F0FAF870BD0000C4
:1016E000EF27000870B5040004D094F839000025F5
:1016F00010B106E0012070BD84F83850204600F09B
:1017000023F8242084F839002068C16821F40051AE
:10171000C160204601F0CCF82068016921F49041B5
:1017200001612068416921F02A0141612068C16896
:1017300041F40051C160E563202084F8390084F849
:101740003A00002070BD000070B586B000240094FF
:101750000194029403942B4E03682B490220032228
:101760002A4DB34229D18B6943F480438B618B6945
:1017700003F4804304938B6943F004038B6189690C
:10178000039201F0040104910102CDE900106946C1
:101790002846FEF7A9FD2815CDE90004694628462C
:1017A0000294FEF7A1FD002211462520FFF7D0F993
:1017B0002520FFF7C1F906B070BD154EB342FAD12E
:1017C000CB6943F40033CB61CB6903F4003304935A
:1017D0008B6943F004038B618969039201F0040172
:1017E00004910421CDE9001069462846FEF77CFDEE
:1017F0000820CDE90004694628460294FEF774FDEE
:10180000D9E7000000380140001002400008014004
:101810000044004070472DE9F843044690F8390031
:101820001F4616460D46202850D1A5B19EB194F80A
:10183000380001284AD0012084F838004FF0000811
:10184000C4F83C80212084F83900FEF735FEA684D8
:101850008146E68426E00120BDE8F883E08C401E46
:10186000E084A0684B46B0F5805F4FF000024FF077
:1018700080012046009703D001F003F9E8B90DE09C
:1018800001F0FFF8C8B928882168C0F30800486053
:10189000206908B16D1C05E0AD1C03E0216815F856
:1018A000010B4860E08C0028D8D14B460022402133
:1018B0002046009701F0E5F808B10320CCE720208E
:1018C00084F8390084F838800020C5E70220C3E797
:1018D0007047FEE70148FEF7F7BD00001400002046
:1018E00010B5406A01680A6822F480620A6000212B
:1018F0004185426B5163826B516390F83D302022E9
:10190000602B80F83D2080F83E1007D001680A68FF
:1019100022F001020A60FEF7CFFE10BD01640168EB
:101920000A6822F001020A60FEF7CCFD10BD00003B
:1019300070B590F83D10044600252026006829293E
:101940002DD02A292BD094F83D10602904D041686D
:10195000090501D484F83D60256384F83E50016890
:1019600021F40061016020684168090537D54168AC
:1019700021F400614160606B344990F82120012A14
:1019800012D04163606BFEF751FC38B320680168E8
:1019900021F00101016084F83D60606B1CE025636B
:1019A000282184F83D10DAE7A06B4163A06BFEF7B5
:1019B0003DFC98B120684169C943490604D40169D6
:1019C000606A421C626201702068016821F00101B6
:1019D000016084F83D60A06B416B88470FE094F88C
:1019E0003D1060291DD04169C943490604D40169ED
:1019F000606A421C626201702046FEF75DFE94F848
:101A00003D0028280CD1206C400709D51048E06221
:101A1000256384F83D6084F83E502046FEF7EEFED4
:101A200070BD84F83D6025644169C943490604D40A
:101A30000169606A421C626201702068016821F0DD
:101A4000010101602046FEF73DFDD8E7E1180008DE
:101A50000000FFFF01684A69D24352050CD46FF4BD
:101A600080624A6104210164002140F8301F202275
:101A700042730173012070470020704710B5C26A9D
:101A8000448D2F4B0168032C03D0448D022C15D0BC
:101A90000AE0042A03D0082A01D09A4203D10A6836
:101AA00022F480620A6001680A69416A4B1C436241
:101AB0000A70418D491E4185002010BD042A12D0B4
:101AC000082A10D09A420ED0022A0A6802D022F4C4
:101AD000806201E042F480620A6001684A6822F490
:101AE00040724A6008E04A6822F440724A60016825
:101AF0000A6842F400720A6001680A69416A4B1C74
:101B000043620A70418D491E418501680A69416A34
:101B10004B1C43620A70418D491E4185202180F88B
:101B20003D100021016390F83E2080F83E10402ACD
:101B300002D0FEF764FEBFE7FEF763FEBCE70000DD
:101B40000000FFFF10B590F83D1022294CD1418DC7
:101B5000032909D901680A69416A4B1C43620A706A
:101B6000418D491E41853FE0022909D0032907D054
:101B7000C16A022901680A6818D022F4806217E05D
:101B8000C16A022901680A6807D022F480620A60EB
:101B900001680A6842F4006201E042F480620A606F
:101BA0000068416821F4806141601DE042F4806278
:101BB0000A6001684A6822F4E0624A6001680A69C2
:101BC000416A4B1C43620A70418D491E41852021A8
:101BD00080F83D100021016390F83E2080F83E100F
:101BE000402A03D0FEF70BFE002010BDFEF709FED1
:101BF000FAE710B5C26A90F83D10212921D1418D34
:101C000049B1416A4A1C4262026809781161418DFA
:101C1000491E418515E020230021042A13D0082AFB
:101C200011D012F5803F0ED00268546824F4E064AD
:101C300054601122026380F83E1080F83D30FEF7B8
:101C4000DFFD002010BD0268546824F4E064546095
:101C50000268146844F400741460016380F83D3035
:101C600090F83E2080F83E10402AE8D1FEF7CAFDE9
:101C7000E7E7000010B590F83D1090F83E30C26ADA
:101C8000048D24B1212934D0402B30D074E0212997
:101C9000FAD120230021042A13D0082A11D012F5EA
:101CA000803F0ED00268546824F4E064546011222E
:101CB000026380F83E1080F83D3000BFFEF7A0FDC3
:101CC0005AE00268546824F4E064546002681468BE
:101CD00044F400741460016380F83D3090F83E20B5
:101CE00080F83E10402AE9D1FEF78CFD44E022291D
:101CF00042D1418D21B190F83E10402906D032E00A
:101D00000068416821F48061416035E0016D31B1C6
:101D1000016D012911D0016D022915D02CE0C16C93
:101D20000129816C02D0C1F3072108E00268C9B221
:101D30001161016D891C01651EE0816CC9B20268E8
:101D40001161016D491CF6E790F83D10222904D07D
:101D500090F83D10212906D00EE00068016841F49A
:101D60008071016008E0416A4A1C42620268097899
:101D70001161418D491E4185002010BD78B590F854
:101D80003E50C26A046B90F83D6000230168222E29
:101D900006D1066D0EB9402D02D0056D25B107E0C4
:101DA0004869886900901CE00569B5F5404F1AD074
:101DB000458D85B3458D012D20D0428D022A4AD014
:101DC0000A6842F480620A6001684A68120503D515
:101DD0004A6842F480524A6001684A698969009100
:101DE0000365002078BD4A698A6900920A6842F456
:101DF00080720A60016D491C0165F2E712F5803FAF
:101E00000AD0042A21D0082A1FD0122C1DD0C26A61
:101E1000022A09D114E00BE00A6822F480620A6009
:101E200001684A68120503D50A6822F480620AE054
:101E30004A698A6900920A6842F400720A60CFE730
:101E40000A6842F480620A60C6E70A6822F4806287
:101E50000A600168ECE7C26A022A0A680BD042F401
:101E600000620A6001684A698A6900920A6822F47D
:101E700080620A6006E042F480620A6001684A6992
:101E80008969009101684A681205A9D54A6842F437
:101E900080524A60A4E790F83E10402909D00169B9
:101EA000B1F5804F10D0016D99B1016D012915D0A8
:101EB0001CE0016D19B9416C01F0FE0114E0416CA8
:101EC000C9B241F001010FE090F83D102129F6D18F
:101ED000F1E7416CF02201F4407103E0416CF12222
:101EE00001F4407142EAD11100680161002070479D
:101EF0002DE9F84F0446006889460B9D0168984615
:101F0000174641F4806101602068016841F48071E6
:101F1000016000954FF0011A0022514620460A9BAD
:101F200000F0CCF8F0BB216809F0FE0008610AF16E
:101F3000010B2B46594620460A9A00F0EFF818B1DB
:101F4000206C042812D03AE0206841698069009032
:101F50002A4620460A9900F056F950B1206C042810
:101F60002DD12068016841F4007101600120BDE8B5
:101F7000F88FFEB2B8F1010F09D02168380A086164
:101F80002A4620460A9900F03EF90028E6D120684A
:101F900006612A4620460A9900F035F90028DDD16D
:101FA000206800E00BE0016841F480710160009559
:101FB0000022514620460A9B00F080F808B1032019
:101FC000D5E7216809F0FF0040F0010008612B46C9
:101FD000594620460A9A00F0A1F80028B0D1C6E779
:101FE00038B590F83D2001684B6823F4E0634B60FE
:101FF000036800215C6900941C6844F001041C60C3
:1020000003681C6824F480641C6003685C68240511
:102010000BD590F83D40222C2BD090F83D402A2C37
:1020200027D0446B246864684485448DE4B15C69BE
:10203000E443640707D41C69436A5D1C45621C7055
:10204000438D5B1E438503685C69E443640607D4E3
:102050001C69436A5D1C45621C70438D5B1E438591
:10206000036C43F004030364036C23B1FFF760FCCB
:102070001FE0846BD6E72023282A09D02A2A07D01C
:10208000292A05D0046B222C0CD0222A0AD010E079
:10209000094AC262016380F83D3080F83E10FEF7C5
:1020A000ADFB06E0016380F83D3080F83E10FEF79E
:1020B000E9FC002038BD00000000FFFF2DE9F047DB
:1020C0001E4690460D460446C1F30747DDF82090B2
:1020D00012E0701C10D02EB1FEF7EEF9A0EB090053
:1020E000B04209D9002044F8300F20216173A07359
:1020F00020730320BDE8F0872068012F0AD0806993
:1021000025EA00000004000C06D000214145E0D083
:102110000020EFE74069F3E70121F7E72DE9F047F9
:102120009A4691460D46044600264FF02008C1F31A
:1021300007472AE020684069C043400512D4206860
:10214000016841F40071016021686FF480604861AA
:1021500004202064266384F83D8084F83C600120DC
:10216000BDE8F087B9F1FF3F0FD0B9F1000F05D0FE
:10217000FEF7A2F9A0EB0A01494506D944F8306FF1
:1021800084F80D8026730320EAE72068012F07D02A
:10219000D0F8180025EA00000004000CE0D0C9E7E0
:1021A0004069F7E72DE9F041002590460E460446C8
:1021B000202721E04069C043C0060CD421686FF09D
:1021C000100048612564256384F83D7084F83C5014
:1021D0000120BDE8F0812EB1FEF76EF9A0EB0800FA
:1021E000B04209D954F8400F40F0200044F80409E7
:1021F000677025700320ECE720684169C9434906F0
:10220000D8D40020E5E770B516460D4604461AE01E
:102210002046FFF71FFC08B1012070BD681C12D0DA
:1022200025B1FEF749F9801BA8420CD954F8400F9C
:1022300040F0200044F81009002020602021617344
:102240002073032070BD20684069C0430006DFD4BE
:10225000002070BD1FB500208DF80C000121642204
:1022600003A88DE807000B467522D2210A48FEF725
:10227000CBFA28B10848016C08A000F03DFC1FBD56
:102280009DF80C1008A000F037FC4FF400510D48E9
:10229000FEF708F91FBD0000140000204661696CBC
:1022A00065642025640A00005265636569766520CF
:1022B0007375636365737366756C20307825580A8F
:1022C000000000000010014070B586B000241B48DB
:1022D0000094019402940394816941F0100181619A
:1022E000816901F010010491816941F0040181616B
:1022F000816901F004010491816941F00801816163
:1023000080690F4E00F008004FF400550490002241
:1023100029463046FEF7CAF801200095CDE90104B0
:102320000220039069463046FDF7DEFF0022294671
:102330003046FEF7BBF806B070BD0000001002404A
:10234000001001400D4810B50B4901600C49416077
:1023500000214FF480428160C0E903124161816134
:10236000C1610162FEF7AAF9002803D0BDE8104060
:10237000FDF750BF10BD00000054004014000020C5
:10238000A086010010B586B000241848009401947E
:102390000294039404941449059401604FF47A4123
:1023A000C0E901140A21C0E903148021C0E90541F4
:1023B000FEF7CCFE08B1FDF72DFF4FF480500090E2
:1023C00069460A48FEF7FCFE08B1FDF723FF0494B6
:1023D00004A906480594FEF791FE002801D0FDF7F8
:1023E00019FF06B010BD0000002C0140680000205D
:1023F00010B58AB0002407941C2168460894FDF7A4
:10240000A8FE20484FF08041C0E900148460C460F9
:1024100004618461FFF7ADF808B1FDF7FBFE079496
:1024200007A918480894FEF769FE08B1FDF7F2FE07
:102430006020CDE90004029400226946114804940A
:10244000FFF72FF808B1FDF7E5FE042269460D48B5
:10245000FFF727F808B1FDF7DDFE082269460948B5
:10246000FFF71FF808B1FDF7D5FE0C2269460548B5
:10247000FFF717F808B1FDF7CDFE0248FEF7CEFFD3
:102480000AB010BDA80000200C4810B50A49016030
:102490004FF4E1314160002181600C22C160C0E94C
:1024A00004128161C161FFF71DF9002803D0BDE866
:1024B0001040FDF7AFBE10BD00380140E80000201D
:1024C0000C4810B50A4901604FF461414160002198
:1024D00081600C22C160C0E904128161C161FFF713
:1024E00001F9002803D0BDE81040FDF793BE10BDF0
:1024F0000044004028010020FEE770470907090E4C
:10250000002806DA00F00F0000F1E02080F8141D2A
:10251000704700F1E02080F8001470477047704762
:10252000FEF7B2BA30B58FB028216846FDF711FE2C
:1025300014210AA8FDF70DFE022501200490009544
:102540001020059000244FF46010CDE90840079555
:102550006846FEF73BFC08B1FDF75CFE0F20CDE9B5
:102560000A054FF48060CDE90C4002210AA80E94C0
:10257000FEF720FB002801D0FDF74CFE0FB030BD68
:102580000D48016841F00101016041680B4A1140AA
:10259000416001680A4A11400160016821F480210C
:1025A0000160416821F4FE0141604FF41F01816028
:1025B0000449C00308607047001002400000FFF8A3
:1025C000FFFFF6FE08ED00E00148FEF773BE0000D5
:1025D00068000020F0B50268164B174C174D4FF0FD
:1025E0008047984205D0B84203D0A04201D0A8420B
:1025F00003D122F070064A683243984205D0B842AF
:1026000003D0A04201D0A84203D122F44074CA688A
:10261000224322F080044A69224302608A68C2622F
:102620000A688262984201D109690163012141610E
:10263000F0BD0000002C01400004004000080040F4
:1026400010B5846842EA032224F47F440A432243FB
:10265000826010BD826822F070020A4342F00701D6
:102660008160704730B5026A22F001020262026A9C
:102670004368846924F073050C682C4322F002053A
:102680008A682A430A4DA8420BD122F00805CA687D
:1026900023F440732A434D6922F004021D438B69E1
:1026A0002B434360846149684163026230BD00008E
:1026B000002C014030B5026A22F010020262026A68
:1026C000436884690D6824F4E64444EA05248D686F
:1026D00022F0200242EA05120B4DA8420ED1CD682D
:1026E00022F0800242EA05124D6923F4406343EA76
:1026F00085038D6922F0400243EA850343608461CB
:1027000049688163026230BD002C014030B5026A25
:1027100022F480720262036A4268C46923F400737F
:1027200024F073050C682C438D6843EA05230C4D97
:10273000A8420ED1CD6823F4006343EA05234D6916
:1027400022F4405242EA05128D6923F4806342EA82
:1027500005124260C4614968C163036230BD000074
:10276000002C014030B5026A22F480520262046AF1
:102770004268C3690D6823F4E64343EA05238D6884
:1027800024F4005444EA0534064DA84204D14D69AE
:1027900022F4804242EA85124260C36149680164C2
:1027A000046230BD002C014010B5036A046A24F0B5
:1027B00001040462846924F0F00444EA021423F062
:1027C0000A020A438461026210BD10B5036A23F055
:1027D000100303628369046A23F4704343EA0232FC
:1027E00024F0A00343EA01118261016210BD10B51B
:1027F000406A0021C185C184FEF7EBFE10BD01686F
:10280000CA6822F49072CA6001684A6922F0010223
:102810004A61202180F83A10704710B590F83A10BC
:10282000222901D0022010BD8168B1F5805F11D04E
:102830000169002901681FD0496801F07F03816A9E
:102840004A1C82620B70C18D491E0904090CC185A6
:1028500018D02BE00269816A002A0268526805D00C
:10286000D2B20A80816A491C8162ECE7C2F3080295
:102870000A80816A891CF7E74A68816A4B1C836277
:102880000A70E0E70168CA6822F02002CA600168A5
:10289000CA6822F48072CA6001684A6922F00102A3
:1028A0004A61202180F83A10FEF7B4FF002010BDE5
:1028B0002DE9F041044600680169E26821F44051C5
:1028C000114301612169A0680843616908432168D7
:1028D000CA6841F20C639A430243CA6020684169A6
:1028E000A26921F44071114341614C49206864257B
:1028F000322688423CD1FEF723FA00EBC00101EBFF
:10290000001061688900B0FBF1F7FEF719FA00EBDF
:10291000C00101EB00106168B0468900B0FBF1F026
:10292000B0FBF5F06FF01801484307EB800106EBB0
:102930000110B0FBF5F000F0F006FEF701FA00EB35
:10294000C00101EB001061688900B0FBF1F0B0FB41
:10295000F5F006EB0016FEF7F3F900EBC00101EB12
:10296000001061688900B0FBF1F7FEF7E9F93BE080
:10297000FEF7D6F900EBC00101EB00106168890099
:10298000B0FBF1F7FEF7CCF900EBC00101EB001052
:102990006168B0468900B0FBF1F0B0FBF5F06FF074
:1029A0001801484307EB800106EB0110B0FBF5F07E
:1029B00000F0F006FEF7B4F900EBC00101EB0010E7
:1029C00061688900B0FBF1F0B0FBF5F006EB001692
:1029D000FEF7A6F900EBC00101EB00106168890069
:1029E000B0FBF1F7FEF79CF900EBC00101EB001022
:1029F00061688900B0FBF1F0B0FBF5F06FF01801F1
:102A0000484307EB800108EB0110B0FBF5F02168AB
:102A100000F00F0030448860BDE8F08100380140CC
:102A200090F83910212901D0022070478168B1F552
:102A3000805F016A0BD04A1C02620268097851600B
:102A4000C18C491E0904090CC1840ED017E0098805
:102A50000268C1F30801516001690029016A02D0CE
:102A6000491C0162ECE7891CFBE70168CA6822F097
:102A70008002CA600068C16841F04001C160002066
:102A800070472DE9F041984617460E460446069DCC
:102A90001DE0681C1BD02DB1FDF70EFDA0EB08005A
:102AA000A84214D92068C16821F4D071C16020689F
:102AB000416921F001014161202084F8390084F846
:102AC0003A00002084F838000320BDE8F081206837
:102AD000006836EA000004D00020B842D9D00020B7
:102AE000F3E70120F9E700000148FEF773BD00009D
:102AF000E8000020FEE700000FB4054B10B503A965
:102B0000044A029800F018F810BC5DF814FB0000AD
:102B1000F92D00081000002002E008C8121F08C1AB
:102B2000002AFAD170477047002001E001C1121F4E
:102B3000002AFBD1704700002DE9FF4F8DB09B4666
:102B40000F460446002606E025280BD05A460F996A
:102B50009047641C761C20780028F5D111B03046CF
:102B6000BDE8F08F0025A8460122984900E0054302
:102B700014F8013F203B02FA03F00842F7D1207815
:102B80002E2817D114F8010F45F004052A280ED07D
:102B90006FF02F022078A0F1300109290AD808EB44
:102BA000880102EB410100EB0108641CF2E757F8D1
:102BB000048B641C20786C280DD004DC4C2812D0C7
:102BC0006A2811D104E074280DD07A280CD10AE0CB
:102BD00045F4001507E0617845F48015814202D183
:102BE000641C05F58015641C2278692A45D008DC30
:102BF000002AB3D0582A69D0632A10D0642A08D199
:102C00003BE0702A67D0732A13D0752A5CD0782AEB
:102C10005CD010465A460F999047761CD3E017F8BF
:102C2000040B8DF8000000208DF80100E94601201A
:102C300003E057F8049B4FF0FF3069074FF00005A1
:102C400001D40AE06D1C45450DDA8542FADB19F81E
:102C500005100029F6D106E06D1C8542FCDB19F851
:102C600005100029F8D12E4404E019F8010B5A464A
:102C70000F9990476D1EF8D2A5E00A200021CDE9FA
:102C80000801C5F3025002280DD001CFC117031E61
:102C900071F100030DDA4FF0000CD0EB0C006CEB7F
:102CA00001012D2308E0FF1D27F00707F7E80201C7
:102CB000EDE72B0504D52B238DF8283001233BE0CD
:102CC000EB0739D02023F7E70A2000E0102000218D
:102CD000CDE9080107E01020002145F00405CDE909
:102CE00008014FF00808C5F3025002280FD001CFA9
:102CF00000214FF0000A2B071FD5702A0DD0DDE907
:102D000008C38CF0100C5CEA030C0CD015E0FF1D1E
:102D100027F00707F7E80201EBE740228DF82820AB
:102D20004FF0010A0BE050EA010306D030238DF882
:102D300028308DF8292002239A46582A04D024A24C
:102D40000DF120090B9209E026A2F9E7DDE908233D
:102D5000FDF70AFA0B9B9B5C09F8013D50EA010262
:102D6000F4D1ADEB090020300890680701D44FF092
:102D700001080899884502DDA8EB010000E0002069
:102D80008046002506E00AA85A46405D0F99904704
:102D90006D1C761C5545F6DB04E030205A460F9931
:102DA0009047761CB8F10001A8F10108F5DC05E0B8
:102DB00019F8010B5A460F999047761C0899481E3E
:102DC00008900029F4DC641CC5E600000928010015
:102DD0003031323334353637383961626364656691
:102DE0000000000030313233343536373839414253
:102DF000434445460000000013B5642301226946A0
:102E00000248FEF708FD00981CBD0000E800002005
:102E1000FDF742FEFFF786FBFFF756FAFFF7E8FAE9
:102E2000FFF790FA0E48FDF7FFFDFFF72DFB0D4869
:102E3000FEF78AFCFFF744FB0B48FEF785FCFFF723
:102E4000A1FA4FF4FA70FDF73DFA08A0FFF754FE1F
:102E50004FF47A74FFF7FEF92046FDF733FAF9E7ED
:102E600014000020E80000202801002045434520F0
:102E700036373830202D2042616C616E63696E6791
:102E800020526F626F740A00000000000000000012
:102E90000102030406070809000000000102030400
:102EA000C02E00080000002014000000182B0008AD
:102EB000D42E00081400002054050000282B000820
:102EC00001000000100000000000000000A24A0401
:042ED00000000000FE
:04000005080000ED02
:00000001FF
